:10000000000000308A009A28A101A117AD00FE303F
:100010005A202D085A28AB00881108118316881120
:1000200008110F30880583122B08A01835283E30A0
:10003000A700803087203330AA0049201330A70062
:10004000883087204920643086204920643086200B
:100050002230AA004920283034200C3034200630C9
:100060003420A0142B0835282014AA00201C432873
:100070000811033C031C482848200730A700D03053
:100080008720031408002014FE3C03195828081583
:10009000201C201088150F3088052A08F0398804A4
:1000A00000008811AA0E000020184928323086204E
:1000B0002B089628A11B0B280800A400A2012408E5
:1000C00003178D000313250803178F0070200319F1
:1000D00096285A20A40A0319A50AA20F5F28962879
:1000E000831603178C170C140000000083120C08F1
:1000F0009628A901A800FF30A807031CA907031C24
:1001000096280330A700E63087207B28A701FC3E15
:10011000A600A709031C9228FF300000A6070318B9
:100120008D28A6070000A70F8C28080083138312D0
:10013000031308008301A001073083169F00831278
:10014000073083169F0002309300910136308312EE
:1001500094008030A1008A0104200130A5001E30E7
:100160008A015D208030A100C0308A010420013066
:10017000A5002F308A015D200330A900E8308A01F4
:100180007A208A110A128C1DC8288A110A12CC20E2
:10019000141394138A01C1288C118A110A12831630
:1001A0008310141983148312831805298A110A12E3
:1001B0008316140C83120318DE2808008A110A1211
:1001C00083168310941A831483128318EF28023045
:1001D00013028A110A120319EE28080008001308F6
:1001E000AE008030A1008A0104200130A50040301B
:1001F0008A015D208030A100C0308A0104200130D6
:10020000A50051308A015D2008002E0893001416C5
:100210008030A1008A0104200130A50062308A01EB
:100220005D208030A100C0308A0104200130A5008B
:1002300051308A015D2008008A011C292E002E0001
:100240002E002E002E00530049005300540045009C
:100250004D002E002E002E002E002E0000002E003D
:100260002E002E002E004100430049004C004900A2
:1002700059004F0052002E002E002E002E000000CC
:10028000200056004500520049002000470045006C
:100290004C004400490020002000200020002000E5
:1002A000000020002000200020002000200020006E
:1002B000200020002000200020002000200020003E
:1002C0002000000020005600450052004900200098
:1002D000470049005400540049002000200020003D
:0602E000200020000000D8
:02400E007A3DF9
:00000001FF
