:020000040000FA
:04000000AAEF00F073
:08000800F7EF00F00E6E420E4E
:10001000056E0F0E066E83EC00F0D8B4BA90D8A42B
:10002000BA80FC0FD8A0BA92D8B0BA82400E056E42
:10003000420E066E0F0E096E0A6ABAB027D8BAB21F
:1000400025D885EC00F00504BB6E05C007F006C09E
:1000500008F000500B6E0C6E003C0C6A9AEC00F03D
:100060000A500E2E0AD0BE6E0C0EBD6E09BEBD8AA1
:1000700009BCBD889494BA841200676E0C0E666E3B
:1000800009BE668A09BC6688949EF5D700D8D890C8
:100090000932063205321200E836E836FC0B010957
:1000A000C212C009C216C050F80B0309C06E320E4E
:1000B0006FEC00F0C282C2B2FED7C4CF11F0C350C1
:1000C000106E1200086A076EFF0E0726082200D085
:1000D000D8A01200030E066EDE0E02D8F5D7066A0F
:1000E000E90F056EFC0E05E3000000000526FDE2A9
:1000F000000005260606F9E205B000D005A202D0F0
:1001000000D0000012000A6A096A100EF36E06346D
:1001100009360A360750095C08500A5805E30750AB
:10012000095E08500A5AD88005360636F32EEFD7F6
:100130000550120007500B02F3CF09F0F4CF0AF07C
:1001400008500B02F3500A2607500C02F3500A26FF
:10015000095012000001010E136E020E146E796A2E
:10016000786A796A786A0F0EC16E0F01386B396B45
:100170003A6B92809282928492869298929A93801D
:100180009382938493969398939A939C939E94903E
:100190009492949494869488948A948C949E2C6ED1
:1001A000050E2F6EC580010E086EF40E8CDF140E46
:1001B0003D6E3DC0C8FFC56A360EC66E486A9D904A
:1001C000F28CCD92CD989E969D86C78E9D80CD80D7
:1001D000F28E4B6A4C804D6A2FC000F0070E086EFD
:1001E000D00E076E010E12DF0001DBEF01F00001FF
:1001F000EACF4FF0E9CF50F001C051F012C052F0F9
:10020000F29E000E9EB0010E126E000E9DB0010E09
:100210001216D8B436EF01F09D90180ECE26FC0EC3
:10022000CF229D809E90344A352AE80E345C030E1E
:100230003558D8A036EF01F0356A346A364A372A85
:100240003752D8A404D03A0E366436EF01F0376A3C
:10025000366A382A3A0E386436EF01F0386A392A9D
:10026000170E396436EF01F0396A3A2A9EA6D1EFAB
:1002700001F09E96C7A83EEF01F0486AC7A447EF79
:1002800001F0C96A4BC0C9FFC688B8EF01F04B68DE
:10029000C7A0B8EF01F0C9CF3CF000EE3EF04850E7
:1002A0003CC0EBFF376A366A386A396A3A6A482ACC
:1002B0003E50016E150E016263EF01F0010E146EE7
:1002C0000A0E4B6E486A3E50016E160E01626EEFCA
:1002D00001F0020E146E0A0E4B6E486A3E50016E1B
:1002E000170E016281EF01F04B68142C7AEF01F0D8
:1002F000150E4B6E020E146280EF01F0160E4B6E5F
:10030000486A3E50016E180E01628AEF01F02DC05E
:100310004BF0486A3E50016E1A0E016295EF01F0F3
:10032000050E2F6E2FC04BF0486A3E50016E1B0E1B
:100330000162A0EF01F0400E2F6E2FC04BF0486A13
:100340003E50016E1C0E0162ABEF01F07F0E2F6E6E
:100350002FC04BF0486A3E50016E200E0162B4EF90
:1003600001F030C04BF0486AC6ACB8EF01F0C69C53
:10037000010EC7B4000E126E000EC6BC010E12169E
:10038000D8B4C4EF01F0C69CC688000EC7B4010EF5
:10039000126E000EC6BE010E1216D8B4D1EF01F0D7
:1003A000C69EF28E4FC0EAFF50C0E9FF51C001F077
:1003B00052C012F01100376A366A386A396A3A6AEE
:1003C000939C8A9C939E8A9E0A0E7CDE939A8A9ABC
:1003D000939C8A8C939E8A8E132CF5EF01F0929851
:1003E000899894908B80010E146E81EC02F00D0EB2
:1003F0003A6444EF02F0140E3A6040EF02F0010E4E
:10040000146E060E385CD8A00AEF02F0020E146ECD
:100410003EEF02F0100E385CD8A013EF02F0010E90
:10042000146E3EEF02F0150E385CD8A01CEF02F0FF
:10043000020E146E3EEF02F01F0E385CD8A025EFBE
:1004400002F0010E146E3EEF02F0240E385CD8A0CC
:100450002EEF02F0020E146E3EEF02F02E0E385C0C
:10046000D8A037EF02F0010E146E3EEF02F0330E0B
:10047000385CD8A03EEF02F0020E146E44EF02F09A
:10048000020E146E070E3A6E010E4E6E150E4E6081
:100490007EEF02F0142C53EF02F09298899894901A
:1004A0008B8057EF02F09298898894908B90010E80
:1004B0004CEC00F02D6E11C02EF0D8902E322D3263
:1004C000D8902E322D32020E4CEC00F0306E11C05E
:1004D00031F0D89031323032D89031323032FA0E99
:1004E00062EC00F082729492FA0E62EC00F082727A
:1004F0009492817093904E2AD8A0C8D781EC02F0D4
:1005000076D72A6A296A4C0E286E100E276EA5EC43
:1005100002F02A6A360E296E070E286EAD0E276E7F
:10052000A5EC02F02A6A400E296E280E286E100EE5
:10053000276EA5EC02F02A6A6F0E296ED40E286E83
:10054000D80E276EA5EC02F01200010E2B6E180ECD
:100550002B60D7EF02F093988A98010E2714046A53
:10056000036A026A016E0104021003100410D8A489
:10057000BCEF02F093988A88D8902A322932283228
:100580002732030EE82EFED70000000093968A86DD
:10059000030EE82EFED70000000093968A96030E05
:1005A000E82EFED7000000002B2AD8A0D0D7939ABF
:1005B0008A8A030EE82EFED700000000939A8A9ADA
:0E05C000030EE82EFED7000000001200FFD749
:020000040030CA
:03000100211E1CA1
:020005003F803A
:0600080003C003E0034009
:00000001FF
