:10000000000000308A002E28FF0003088301FE0054
:100010000A08FD0000308A007828AB01AA00FF30F2
:10002000AA07031CAB07031C2A280330A900E630EB
:100030001B200F28A901FC3EA800A909031C2628A3
:10004000FF300000A80703182128A8070000A90F07
:10005000202808008313831203130800830107304C
:1000600083169C009B018312B401B501FF308316F7
:100070008600051405110512811701138111D03076
:100080008B0008308C0083128C01013083169B009A
:10009000C13083129F00823083169F0083120C139D
:1000A00083160C130B1732309300363083129400F2
:1000B0000B178B170B30BA000130BB00BC00BD0022
:1000C000BE000430BF000C30C000B00130083A3E22
:1000D00084000008A9003008423E840029088000FE
:1000E000B00A3008083C8A11031D66288A119C2931
:1000F0008B138A118C1D9E288C118A1183168310F4
:10010000141D8314831283189E288A11831683106A
:10011000941A8314831283189A2894138A118316CD
:10012000140C8312031895281417363093001416F4
:100130008A119E2814176330930014168A118B1CA1
:10014000A3288A11DC208A110C1FA8288A11B0204C
:100150008B177D088A007E088300FF0E7F0E090042
:100160000C131E08D70083161E088312D8005708E8
:10017000A5002508B100B0015808A70027083007DE
:10018000A30031080318013EA400013024028A11A3
:10019000031CD7288A11031DD228F53023028A11A7
:1001A000031CD7280511831205158A11DB28831635
:1001B00005118312051108008B100030061B013059
:1001C000B101B0000330A8000310B00DB10DA803B9
:1001D0008A11031DE4280030861A0130B301B200F1
:1001E000B20DB30DB20DB30DFC30B2053208B0073D
:1001F00033080318013EB107003006190130B3017E
:10020000B2000310B20DB30D3208B0073308031863
:10021000013EB10730088619013EB9000B303902A2
:100220008A11031D18290130B400CA018A11192945
:10023000CA0A023085068316851083124A083A3EA0
:100240008400390880000C3039028A11031D80298E
:10025000B40106304A028A11031D72290317EA010C
:100260000130EB000313053003176B028A110313EF
:1002700003184C2903176B083A3E84000008031347
:10028000A30023080317EA07031301300317EB0742
:100290008A110313031C32293F08A3000F300317F0
:1002A0006A050313A601A500A6088A11031D70297B
:1002B000250823028A11031D7029B00130083A3E37
:1002C00084000008A9003008423E8400290880000C
:1002D000B00A3008083C8A11031D5E298A11722970
:1002E0000430B40005304A028A110318792903301A
:1002F000B40008304A028A11031C80290230B4007D
:1003000007304A028A11031C8829CA010230B4004E
:1003100008008C118A1183168310141D8314831214
:10032000831894291308B60008001308B6001413A4
:10033000080036309300080064308A010D208316CF
:100340000512831205161F158A01A4298A01A62900
:040350008A01A8294D
:02400E00603F11
:00000001FF
