:10000000000004308A000E2C8030A100FE30BD219B
:100010000130BD217530AD003030EB29A101A117B1
:10002000BB00FE30BD213B08BD29A701B400B501CE
:10003000A01127080319A0150430A600350E2520AD
:1000400035082520340E252034080F39F63E0318D4
:10005000073E0A3EAC00A6030319A01127080319A6
:100060003428260203183B282C08031DA011A019D0
:100070003B28303EBD290800CD00BE1F41282D3051
:10008000BD21C00F4828BF0F4828BE0A0319BE0A69
:10009000C501C601C701C801BE176A30BD070310FC
:1000A000BE0CBF0CC00CC80CC70CC60CC50CBD0FD9
:1000B0004F2840083D02C007BD023F083E02BF076F
:1000C000BE02A7019B202E30BD21CE010310450D9D
:1000D000C000460DBF00470DBE00480DBD00CE0D4F
:1000E0000310C00DBF0DBE0DBD0DCE0D4508C007E0
:1000F00046080318460FBF0747080318470FBE07F7
:1001000048080318480FBD070318CE0F0310C00D91
:10011000BF0DBE0DBD0DCE0D4E08303EBD214008B9
:10012000C5003F08C6003E08C7003D08C800CD0B0B
:1001300065280310302AA0112708031DA228A01546
:100140000A30A7004008AF003F08AE003E08AD00EF
:100150003D08AC00A601B701B601B5010A30B400F4
:10016000FA21A60A26082702031DAB283408031D1E
:10017000A011A01DBD28270BC0283408303EBD218A
:10018000A70BA228302AB9008811081183168811FC
:1001900008110F30880583123908A018ED283E3069
:1001A000AD008030EB213330B80001211330AD00B9
:1001B0008830EB2101216430EA2101216430EA21F9
:1001C0002230B80001212830EC200C30EC20063021
:1001D000EC20A0143908ED282014B800201CFB28BE
:1001E0000811033C031C002900210730AD00D0306A
:1001F000EB21031408002014FE3C031910290815F4
:10020000201C201088150F3088053808F039880424
:1002100000008811B80E0000201801293230EA21B0
:100220003908302A2016201E2012201B1C29FE39D6
:10023000A900201703103229A01B2429B800A017F9
:1002400038210318292938083C2103182929201EA0
:1002500032298316111511192B2983122013A0138B
:10026000A01220113A14031C3A10302A54213929C3
:100270004D212908A01A01389300831614193E292C
:100280008312B00103108316111F302A83124829EC
:100290004929B00B42290314080083168715071655
:1002A000111411185129302A8316911491185629C6
:1002B000302A2016201E2012A01A6229A0169B2187
:1002C000031889290830B100AF21B00DB10B6429A2
:1002D000201E9421B921B521201A89218E213008B0
:1002E0000310302A2016201E2012201B7C29FE39E4
:1002F000A90020170310302AA01B8429B800A017DA
:100300009B21031889293808A22103188929201E56
:10031000302A9421B9212013A013A01223088400AD
:100320002808841780049A29230884002809800556
:100330008417800508008E21B9219421B521290850
:10034000A01A0138B0000830B100B00D03188E219A
:10035000031C9421B921B521B10BA5298E21B92106
:100360002308840028080005FF3E2408840025098E
:1003700097292408840025089129A11BC328142942
:100380000800A600A201260803178D000313270802
:1003900003178F00D4210319302ABD21A60A03199F
:1003A000A70AA20FC329302A831603178C170C142F
:1003B0000000000083120C08302AB101B000FF30A9
:1003C000B007031CB107031C302A0330AD00E63030
:1003D000EB21DF29AD01FC3EAC00AD09031CF62981
:1003E000FF300000AC070318F129AC070000AD0F87
:1003F000F0290800C101C201C301C4012130B200CB
:10040000212AC10DC20DC30DC40D340841023508A7
:10041000031C350F42023608031C360F430237080F
:10042000031C370F4402031C212AC4003408C102F4
:100430003508031C350FC2023608031C360FC302F1
:100440000314AC0DAD0DAE0DAF0DB20B012A440877
:10045000B7004308B6004208B5004108B400302A8E
:10046000831383120313080049084502CD000318C3
:10047000532ACD09CD0A4508D0004908C5005008C7
:10048000C9004608D0004A08C6005008CA004708FC
:10049000D0004B08C7005008CB004808D0004C08DB
:1004A000C8005008CC001A304D020318302AC90881
:1004B0000319302AC1014608D0004A06D100C617E8
:1004C000CA170830CD02031C6D2A4C08C1004B0826
:1004D000CC004A08CB00CA01612ACD070319792A4A
:1004E0000310CA0CCB0CCC0CC10CCD03CD08031DE2
:1004F000702AD11FC02A4C08C8024B08031C4B0F9E
:10050000C7024A08031C4A0FC6020318912AC609EB
:10051000C709C809C80F8F2AC70A0319C60A80303D
:10052000D006C109C10A03199C2AC803480F9C2A96
:10053000C703470A0319C6030430CD00C608031DCC
:10054000B02A4708C6004808C7004108C800C101D2
:100550000830C502031CDF2ACD030319DF2A9E2AB7
:10056000C61BBB2A0310C10DC80DC70DC60DC503A0
:100570000319DF2AB02AC11FBF2AC101D52ADE2AEA
:100580004C08C8074B0803184B0FC7074A08031845
:100590004A0FC607031CD32AC60CC70CC80CC10CD3
:1005A000C50A0319E12AC11FDE2AC80FDE2AC70FB8
:1005B000DE2AC60FDE2A03144510CC2AE82AC5011C
:1005C000E42ACF16FF30C500C801C7018030C6003D
:1005D000D01BEB2AC613302A4608C3004A06D100B6
:1005E000C9080319542BC5080319572B4908C5021C
:1005F0007F300318FF2AC507031C562B022BC507A3
:100600000318592B4808C1004708C200C317CA176E
:100610001830D000C801C701C601102B03181C2BCD
:100620004C0841024B08031C4B0F42024A08031CB2
:100630004A0F4302031C272B4C08C1024B08031C22
:100640004B0FC2024A08031C4A0FC3020314C80D11
:10065000C70DC60DC10DC20DC30DD00B0E2BC61B91
:10066000392BC5080319562BD10CC503D00AD10D5F
:100670000E2B0318472B4C08C1024B08031C4B0FD1
:10068000C2024A08031C4A0FC302031C532BC80FA3
:10069000532BC70F532BC60F532BC60CC70CC80CBC
:1006A000C50A0319592B602BCF155A2B4F15C501BD
:1006B0005C2BCF14FF30C500C801C7018030C600D5
:1006C000D11B632BC613302A4608C3004A06D1004B
:1006D0004508003A031D4908003A0319B42BC50721
:1006E0007E30031C772BC5020318B62B7A2BC5026C
:1006F000031CB32B4808C1004708C200C317CA1720
:10070000C801C701C6011830D000C30CC20CC10C0F
:10071000031C942B4C08C8074B0803184B0FC70742
:100720004A0803184A0FC607C60CC70CC80CD00BE2
:10073000852BC61BA32BC80DC70DC60DC5080319F5
:10074000B32BC503430D031CB22BC80FB22BC70F2D
:10075000B22BC60FB22B0314C60CC70CC80CC50AAB
:100760000319B62BBD2B4F15C501B92BCF14FF3084
:10077000C500C801C7018030C600D11BC02BC613FD
:10078000302AC500C601C701C801D113D62BD11329
:10079000C81FD62BC809C709C609C509C50FD52B5F
:1007A000C60FD52BC70A0319C80AD1179630D00037
:1007B000C8080319E42B0830D0074608C5004708CD
:1007C000C6004808C700F92BC708031DF92B0830DD
:1007D000D0024608031DF52B0830D0024508031D42
:1007E000F42B4808D000032CC501C7004508C600FB
:1007F000C501C71B012C0310C50DC60DC70DD003C5
:10080000F92BD11FC7134508C8005008C500470879
:10081000D0004608C7005008C600302A830128309F
:10082000940083163130930080309400831240305E
:10083000CF00A001073083169F0083129F018030F4
:10084000A1008A010E200530A70007308A01C121CE
:100850008030A100C0308A010E200530A70018307A
:100860008A01C1210130B100F4308A01DE218030DB
:10087000A100C0308A010E200530A70029308A016E
:10088000C1210130B100F4308A01DE218A01042047
:100890000730A3001030A8000730A4000830A500DE
:1008A00064308A0174218A015921D2000A308A01F8
:1008B000DD2114308A01DD215A08AA002A088A01A4
:1008C000C123CC01CB01CA018730C9008A0164234E
:1008D0004808C0004708BF004608BE004508BD00E4
:1008E0005B08AB002B088A01C1234008CC003F08FD
:1008F000CB003E08CA003D08C9008A0134224808DE
:10090000E0004708DF004608DE004508DD00CC01B6
:10091000CB014C30CA008530C9006008C8005F08B0
:10092000C7005E08C6005D08C5008A01EC224808C1
:10093000E0004708DF004608DE004508DD00023021
:1009400086068316861080308312A1008A010E204D
:1009500044308A01C3203A308A01C32052088A01F8
:10096000152020308A01C32042308A01C320613023
:100970008A01C32074308A01C3203A308A01C3201F
:100980005A088A01152020308A01C3205B088A0199
:1009900015208030A100C0308A010E204B308A0122
:1009A000C3206D308A01C32074308A01C3203A30DD
:1009B0008A01C3206008C0005F08BF005E08BE0057
:1009C0005D08BD0003308A013C200330B100E830EF
:1009D0008A01DE218A01482C8A014D2164308A0176
:1009E000142101308A01142102308A0114210330BC
:1009F0008A01142104308A01142105308A01122150
:100A00008A01292108008A01032D8A01052D490048
:100A100032004300200044004500420055004700DA
:100A200020004D00410053005400450052000000DA
:100A30002E002E002E002E004100430049004C00E5
:100A4000490059004F0052002E002E002E002E00AB
:100A500000002E002E002E002E002E00410043002C
:100A600049004C00440049002E002E002E002E00AC
:040A70002E00000054
:02400E007A3DF9
:00000001FF
