:10000000000000308A003228FF0003088301FE0050
:100010000A08FD0000308A007328AB01AA00FF30F7
:10002000AA07031CAB07031C2E280330A900E330EA
:100030001B200F28A901F43EA800A909FE30031CCB
:100040002428A80703182128A8070000A90F2128A1
:10005000000028182B2828182D2808008313831245
:10006000031308008301073083169F008312B40135
:10007000B501831601138111D0308B0008308C003C
:1000800083128C01C1309F00823083169F0083123F
:100090000C1383160C170B17323093003630831273
:1000A00094000B178B170B30BA000130BB00BC005B
:1000B000BD00BE000430BF000C30C000B0013008ED
:1000C0003A3E84000008A9003008423E8400290816
:1000D0008000B00A3008083C8A110A12031D5F280C
:1000E0008A110A12B0298B138A110A128C1D7C28DE
:1000F0008A110A1271218C118A110A128B1C832811
:100100008A110A12C2208A110A120C1F8A288A1127
:100110000A1292208B177D088A007E088300FF0E4A
:100120007F0E09000C131E08D70083161E088312C9
:10013000D8005708A5002508B100B0015808A7004D
:1001400027083007A30031080318013EA40001303E
:1001500024028A110A12031CBD288A110A12031DE7
:10016000B728F53023028A110A12031CBD28051195
:10017000831205158A110A12C128831605118312EC
:10018000051108008B100030061B0130B101B000D2
:100190000330A8000310B00DB10DA8038A110A1294
:1001A000031DCA280030861A0130B301B200B20D17
:1001B000B30DB20DB30DFC30B2053208B0073308F1
:1001C0000318013EB107003006190130B301B20037
:1001D0000310B20DB30D3208B00733080318013E07
:1001E000B10730088619013EB9000B3039028A1177
:1001F0000A12031D01290130B400CA018A110A1232
:100200000229CA0A023085068316851083124A081D
:100210003A3E8400390880000C3039028A110A12F3
:10022000031D6729B40106304A028A110A12031D10
:100230005729D9010130DA0005305A028A110A1211
:1002400003182F295A083A3E84000008A300230807
:10025000D9070130DA078A110A12031C1C293F084A
:10026000A3000F305905A601A500A6088A110A129D
:10027000031D5529250823028A110A12031D552939
:10028000B00130083A3E84000008A9003008423E20
:10029000840029088000B00A3008083C8A110A123C
:1002A000031D41298A110A1257290430B400053070
:1002B0004A028A110A1203185F290330B400083079
:1002C0004A028A110A12031C67290230B40007305F
:1002D0004A028A110A12031C7029CA010230B400B2
:1002E00008008A110A1283168310141983148312CA
:1002F000831896298A110A1283168310941A83147C
:100300008312831891298316141083121416323025
:1003100013028A110A1203198E2908008A110A127F
:1003200093291308B6008A110A12A8298A110A1201
:1003300083168310941A831483128318A529141624
:100340001308B6008A110A12A82944309300141623
:1003500008001308B6001413080036309300080094
:1003600064308A010D2083160512831205161F15AD
:0C0370008A01B8298A01BA298A01BC2937
:02400E007A3DF9
:00000001FF
