:020000040000FA
:0400000026EF01F0F6
:0800080068EF01F0166E420ED4
:100010000D6E0F0E0E6EFFEC00F0D8B4BA90D8A49F
:10002000BA80FC0FD8A0BA92D8B0BA82400E0D6E3A
:10003000420E0E6E0F0E116E126ABAB027D8BAB207
:1000400025D801EC01F00D04BB6E0DC00FF00EC001
:1000500010F00150136E146E013C146A16EC01F09E
:100060001250162E0AD0BE6E0C0EBD6E11BEBD8A89
:1000700011BCBD889494BA841200676E0C0E666E33
:1000800011BE668A11BC6688949EF5D700D8D890B8
:1000900011320E320D321200008800A8009800BA0A
:1000A00003D0008A3CD825E2080E106E4CD80F36DB
:1000B000102EFCD700A82BD852D84CD800B819D88D
:1000C0001FD80F50D8901200008800A8009800BCDC
:1000D00005D0FE0B056E008CD890120000BE05D036
:1000E000136E008E1CD805E2135020D802E200A83F
:1000F00012000DD834D8009C009E009A01D812003E
:10010000E268013CE16EE1880450E41207D0E26845
:1001100001C0E1FF041CE616E188E4161200F0DFDE
:100120001ED8F5DF17D8055000BA01090F6E080E6A
:10013000106E0F36D8B0E4DFD8A0E9DF10D80AD8A7
:10014000102EF7D7DDDF0BD8E26801C0E1FF0450C5
:10015000E714FF0FE26802C0E1FF031CDCD7E2688E
:10016000023CE16EE1880350D0D7A96EA66AA68052
:10017000A850A92A1200A86EA66AA684550EA76EDA
:10018000AA0EA76EA682A6B2FED7A694A92A12002E
:10019000E836E836FC0B0109C212C009C216C0508D
:1001A000F80B0309C06E320EEBEC00F0C282C2B253
:1001B000FED7C4CF19F0C350186E1200106A0F6E2C
:1001C000FF0E0F26102200D0D8A01200030E0E6ED4
:1001D000DE0E02D8F5D70E6AE90F0D6EFC0E05E3B0
:1001E000000000000D26FDE200000D260E06F9E2DB
:1001F0000DB000D00DA202D000D000001200126A93
:10020000116A100EF36E0E34113612360F50115C57
:100210001050125805E30F50115E1050125AD8803A
:100220000D360E36F32EEFD70D5012000F5013027D
:10023000F3CF11F0F4CF12F010501302F350122646
:100240000F501402F350122611501200006A0001E0
:100250001B6A020E1C6E796A786A796A786A0F0ED8
:10026000C16E0F01386B396B3A6B92809282928427
:1002700092869298929A938093829384939693987D
:10028000939A939C939E9490949294949486948839
:10029000948A948C949E346E050E376EC580010E40
:1002A000106EF40E8CDF9D90F28CCD92CD989D80D7
:1002B000CD80F28E476A4880496A37C001F0070E48
:1002C000106ED00E0F6E010EA1DE0001AFEF01F037
:1002D00000011AC003F1F29E000E9EB0010E1A6ECC
:1002E000000E9DB0010E1A16D8B4ABEF01F09D9030
:1002F000180ECE26FC0ECF229D809E903C4A3D2AB1
:10030000030E3D5CD8A0ABEF01F0D8A405D0E80EF9
:100310003C5CD8A0ABEF01F03D6A3C6A3E4A3F2A04
:100320003F52D8A406D03B0E3E5C0001D8A0ABEFF4
:1003300001F03F6A3E6A402A3B0E405C0001D8A0B3
:10034000ABEF01F0406A412A180E415CD8A0ABEF38
:1003500001F0416A422AF28E03C11AF011003F6A8D
:100360003E6A406A416A426A939C8A9C939E8A9E36
:100370000A0E24DF939A8A9A939C8A8C939E8A8E83
:10038000010E1B5CD8A4CBEF01F092988998949051
:100390008B80010E1C6EE9EC02F0000EE6DE4A6E68
:1003A000E5DE4B6E4B504A10D8A4D9EF01F0E3ECD8
:1003B00002F0A96A010E4A24186E000E4B20196E35
:1003C0001850D9DE1950D7DE0101012B0A0EF6DED6
:1003D000820E016E100E046E820E026E080E036E07
:1003E000560E74DE010E70DE050EE8DE820E016E22
:1003F000100E046E820E026E080E036E560E66DE3E
:100400004BDE0001EE6F050ED9DE0101026B200EFE
:100410000101025D0001D8B03DEF02F0820E016ED5
:10042000100E046E820E026E080E036E560E4EDE25
:10043000000E4CDE0101025147DE0A0EBFDE820EC5
:10044000016E100E046E820E026E080E036E560EC2
:100450003DDE24DE076E20DE066E00EE4CF0D89006
:10046000023506C0EBFFE82A07C0EBFF0A0EA6DE46
:100470000101022B0001D8A0CAD7280E9FDE820EF0
:10048000016E100E046E820E026E080E036E400E98
:100490001DDE040E19DE0A0E91DE820E016E100EB4
:1004A000046E820E026E080E036E400E0FDE4CECE0
:1004B00000F00FC0F3F04CEC00F00FC0F4F00A0EA7
:1004C0007DDE280E7BDE0101026B200E0101025D44
:1004D0000001D8B0A4EF02F001010251020DF35067
:1004E000066E00EE4CF0D8900235E926000EEA22A6
:1004F000EECF0BF0EFCF0CF00F0E0B140A6E00EEE8
:100500008CF006500AC0EBFF0251020DF3CF18F039
:10051000F4CF19F01828066E00EE4CF0D890023592
:10052000E926000EEA22EECF0BF0EFCF0CF0F00E32
:100530000B140A6E00EE8CF006500AC0EBFF0101AE
:10054000022B0001D8A0C1D7820E016E100E046EDE
:10055000820E026E080E036E380E66EC00F0F35148
:1005600066EC00F0F45166EC00F0066A00EE8CF0E8
:100570000650EB5066EC00F0062A06504008F6E103
:1005800079EC00F0140E1ADE010E02DE356E19C091
:1005900036F0D89036323532D89036323532020EB7
:1005A000C8EC00F0386E19C039F0D89039323832C2
:1005B000D890393238320A0E01DE030E106EE80E82
:1005C000DFEC00F001D7030E106EE80EDFEC00F058
:1005D0001200326A316A4C0E306E100E2F6E0DEC26
:1005E00003F0326A360E316E070E306EAD0E2F6E8E
:1005F0000DEC03F0326A400E316E280E306E100E94
:100600002F6E0DEC03F0326A6F0E316ED40E306E29
:10061000D80E2F6E0DEC03F01200010E336E180E83
:10062000335CD8B040EF03F093988A98010E2F14F2
:10063000096A086A076A066E06040710081009109E
:10064000D8A425EF03F093988A88D89032323132BB
:1006500030322F32030EE82EFED7000000009396B2
:100660008A86030EE82EFED70000000093968A9635
:10067000030EE82EFED700000000332AD8A0CFD703
:10068000939A8A8A030EE82EFED700000000939A00
:100690008A9A030EE82EFED7000000001200FFD752
:020000040030CA
:03000100211E1CA1
:020005003F803A
:0600080003C003E0034009
:00000001FF
