:10000000000001308A0065298030A100FE300821FF
:10001000013008217530A80030303629A101A11720
:10002000B000FE30082130080829A501AB00AC0162
:10003000A01125080319A0150530A4002730AA0037
:1000400010302E200330AA00E8302E20AA016430A0
:100050002E20AA010A302E202B083528A9002C08B2
:10006000A8002B08A70045212708A700A40303190F
:10007000A011250803193F28240203184628270841
:10008000031DA011A0194628303E08290800AE0023
:10009000881108118316881108110F308805831202
:1000A0002E08A01871283E30A80080303621333049
:1000B000AD0085201330A8008830362185206430BB
:1000C00035218520643035212230AD00852028304F
:1000D00070200C30702006307020A0142E0871287B
:1000E0002014AD00201C7F280811033C031C842829
:1000F00084200730A800D0303621031408002014D3
:10010000FE3C031994280815201C201088150F3078
:1001100088052D08F039880400008811AD0E000014
:1001200020188528323035212E0861292012A0168A
:100130002017A0172015A6282016201E2012A01A6E
:10014000A528A016E5200318D8282011831691159C
:100150009119A828141CAA28831213082019BA2858
:10016000201AB728831611121116111AB5288312F6
:10017000201AD8200310A900E128A0162017A017E4
:10018000C3282016201E2012201BCB28FE39A600D3
:1001900020170310E128A01BD328AD00A017E720EB
:1001A0000318D8282D08EB200318D828201EE12892
:1001B000831611151119DA2883122013A013A01227
:1001C00020112F14031C2F1061290321E828FC2083
:1001D0002608A01A0138930083161419ED288312FB
:1001E000A90103108316111F61298312F728F8282B
:1001F000A90BF1280314080083168715071611149C
:100200001118002961298316911491180529612973
:10021000A11B4728C3280800A400A2012408031733
:100220008D000313250803178F001F21031961296F
:100230000821A40A0319A50AA20F0E296129831611
:1002400003178C170C140000000083120C0861299E
:10025000AA01A900FF30A907031CAA07031C6129F2
:100260000330A800E63036212A29A801FC3EA70069
:10027000A809031C4129FF300000A70703183C29E7
:10028000A7070000A80F3B290800AC01AB01103004
:10029000AD00280DAB0DAC0D2908AB022A08031CDC
:1002A0002A0FAC0203185B292908AB072A08031898
:1002B0002A0FAC070310A70DA80DAD0B492927087D
:1002C000080083138312031308008301283094006D
:1002D000831631309300803094008312A0010730E0
:1002E00083169F00FF30860088018312B20114300C
:1002F000B1008A01042032308A012821B501013081
:10030000B400033035028A110A12031C91298A11A4
:100310000A12031D532AE93034028A110A12031803
:10032000532A8A110A1283120313861CA7298030CC
:10033000A1008A010E200230A50055308A010C214F
:10034000A5013508AC003408AB008A0118208A11D9
:100350000A12061DBB298030A1008A010E2002303E
:10036000A50060308A010C21A5013508AC003408D5
:10037000AB008A0118208A110A12861DCF2980300D
:10038000A1008A010E200230A5006B308A010C21E9
:10039000A5013508AC003408AB008A0118208A1189
:1003A0000A12061EE3298030A1008A010E200230C5
:1003B000A50076308A010C21A5013508AC0034086F
:1003C000AB008A0118208A110A12861EF729803094
:1003D000A1008A010E200230A50081308A010C2183
:1003E000A5013508AC003408AB008A011820803024
:1003F000A100C0308A010E2020308A0147203D3004
:100400008A01472020308A01472033088A011520BD
:100410002D308A0147208A01FC2014308A01BD203A
:100420008A110A12861C172A15308A01BD208A11EA
:100430000A12061D1E2A16308A01BD208A110A12D0
:10044000861D252A17308A01BD208A110A12061E30
:100450002C2A18308A01BD208A110A12861E332ADE
:1004600020308A01BD208A01D82064308A012821E9
:100470000330AA00E8308A0129218A01FC201530C6
:100480008A01BD208A019620B3008A01D82003305A
:10049000AA00E8308A012921B40A0319B50A8A1191
:1004A0000A12031D81298A01532A54005200200098
:1004B0004100430020002000200020002000000018
:1004C0005400520020004B004100500041005400F5
:1004D00020002000000044005500520055004D004F
:1004E00053004F0052002000200000005400500034
:1004F000530041004B0049004D0020002000200027
:100500000000430049004B004900530047005500DC
:08051000430020002000000060
:02400E007A3DF9
:00000001FF
