:10000000000000308A007028A0162017A0170A28C8
:100010002016201E2012201B1228FE39A2002017B5
:1000200003102828A01B1A28A700A0172E200318A9
:100030001F282708322003181F28201E282883166F
:1000400011151119212883122013A013A0122011B9
:100050002814031C28106C284A202F28432022082B
:10006000A01A013893008316141934288312A501AD
:1000700003108316111F6C2883123E283F28A50BFE
:100080003828031408008316871507161114111851
:1000900047286C288316911491184C286C28A601C7
:1000A000A500FF30A507031CA607031C6C2803301E
:1000B000A400E6305D205128A401FC3EA300A40961
:1000C000031C6828FF300000A30703186328A30758
:1000D0000000A40F62280800831383120313080092
:1000E00083012830940083163130930080309400CF
:1000F0008312A001073083169F0083128A014320D8
:10010000D0308A01042000308A0104200F308A0197
:10011000042001308A01042002308A0104200330C7
:100120008A01042004308A01042005308A01042059
:1001300006308A0104208A011F200730A600D03033
:080140008A0150208A01A22867
:02400E00323F3F
:00000001FF
