:020000040000FA
:1000000001288312031385018316031301309B001B
:1000100080309F008312031345309F008316031323
:1000200007309C008316031301308500FE308600E4
:10003000831603130730810083120313061405117E
:1000400085150512851024288B20A2200D21051668
:100050003A210B303A02031D24283A213A08B30012
:100060003A213A08B4003A213A08B5003A213A0850
:10007000B6003A213A08B7003A210C303A02031D83
:1000800024283308A8003408A8073508A80736082C
:10009000A80728080F39A80028083702031D2428BC
:1000A000051286203421403020213308303E2021A3
:1000B0003408303E20213508303E20210A303602F7
:1000C0000319B6013608303E20210A3037020319E1
:1000D0007E280B303702031980280C3037020319B1
:1000E00082280E303702031984283708303E202139
:1000F0000A3020210D302021342124283030772867
:100100002A30772823307728423077288316FE302C
:1001100086008312080041309F001030A9000000C3
:100120000000A90B8F281F1500001F199428030138
:10013000FF301E05A60083160301FF301E05831243
:10014000A7000800A001A101A201A301A401A5012B
:10015000A61CAC280530A207261CB2280230A20734
:100160000530A307A71FBA280130A2070230A30752
:100170000530A407271FC2280630A3070230A407B2
:100180000530A507A71ECA280330A3070130A4071E
:100190000330A507271ED2280130A3070530A40786
:1001A0000630A507A71DD8280730A4070830A507E3
:1001B000271DDE280330A4070930A507A71CE22865
:1001C0000230A407271CE6280130A4070A30A40A3D
:1001D000A5020318E728A403A507A30AA40203188D
:1001E000ED28A303A407A20AA3020318F328A2037D
:1001F000A307A10AA2020318F928A103A207A00AD3
:10020000A1020318FF28A003A1073030A007A1070F
:10021000A207A307A407A5070800220EF039AA0029
:10022000AC0023080F39AA0772302A02031C1A29CE
:100230000515080065302A0203180800051108009A
:10024000B0000310061034210830B100B00C031CBC
:100250000610031806143421B10B26290614342184
:100260000E30AF00362108001B30AF00AF0B36292F
:1002700000000800B801B9018514861B3A298510D1
:100280005B21861F3F295121861F3F290608BA009E
:10029000BA0CBA0CBA0C3A080F39BA00B801B90155
:1002A0000800F730AF001C30BB00AF0B5829BB0B68
:1002B00055295A290800B80AFF303802031D0800E2
:0C02C000B90AFF30390203192428080095
:02400E00613F10
:02401000FC3F73
:00000001FF
