:020000040000FA
:0400000000000029D3
:08000800F10003088312031349
:10001000F2000A08F4000408F300831203138C1D95
:1000200010288C118316031314082D39831203131F
:10003000A00009302006031D212883120313130892
:10004000492829302006031D2F2883120313130883
:1000500083120313F60083120313F51449280C309E
:100060002006031D3928751C751577085420751056
:1000700049282C302006031D4028FF3054204928F1
:1000800028302006031D45284928831203138617AC
:100090004828831203137308840074088A007208C6
:1000A0008300F10E710E09008316031314185428EF
:1000B0008312031394139300941B5A2814160800F8
:1000C000831603138E140E14860185018C0183168A
:1000D000031386018501FF30880036308312031335
:1000E0009400080D0E398316031393009401F60152
:0E00F000F501831603138C150B178B170800F0
:100200006020831203136400F51C03298312031377
:100210007608F5100806F039031D1029051211297A
:0C02200005160808F039F70075140329D2
:02400E00363F3B
:00000001FF
