:020000040000FA
:04000000AFEF00F06E
:08000800ECEF00F0009603503C
:10001000D8B40086040E026E0C3805D80C5003D8F4
:100020000B3801D80B500F0BF60FD8B0070F0A0F83
:1000300000D0076E024E0096035003E0025CD8B079
:1000400008D00750D8A4009600B603D0300F37EF81
:1000500000F01200A66AA68E0900F55002E002D850
:10006000FBD7120004009EA8FED7AD6E120001B4AB
:1000700032EF00F00A6A096EFF0E09260A2200D04C
:10008000D8A01200030E086EE40E02D8F5D7086A55
:10009000F50F076E081ED8A006D0FE0E00D007266A
:1000A000D8B0FCD7072604000400083EF6D700D0DD
:1000B00007A002D000D000D012004E6F6465204F20
:1000C0006E00476C6F62616C2042726F61646361A5
:1000D00073742E2E2E0050726976617465204D6502
:1000E00073736167652E2E2E000047726F75702046
:1000F00042726F6164636173742E2E2E000044653A
:1001000063436D64200042617474657279005361C9
:10011000676C696B20736F72756C6475203A0000B0
:1001200046616B6520416C61726D20497374656E28
:100130006469203A00005365742053656E736974D6
:100140006976697479203A0054696D652053657445
:10015000203A0000435243204F4B2E2E2E00006ABF
:10016000470EAF6EAC0EAC6E900EAB6E000106EE9D
:1001700000F0ED6AE950EA10FCE1EF6A200E926EA1
:10018000110EC26E0A0EC16EC08EF00E936E900EEE
:10019000946E080E956E040E966EF19E93928A925E
:1001A000CA0ECF6E510ECE6ECD6A9E909D809D8AF6
:1001B0009F8ACD80C00EF26E266A276A45903D0E5A
:1001C0003F6E2D0E406E446A010E436E050E426E68
:1001D000AB0E416E36EF01F00001EACF4BF0E9CFF4
:1001E0004CF005C04DF010C04EF0100ECE26270E7C
:1001F000CF229EA0FFEF00F0817C939C9E909EA852
:1002000006EF01F0817893989D989E989EAA2DEF15
:1002100001F0817A939AAECF25F00D0E255C010E88
:10022000D8A4000E106E1150056E230E055C010E51
:10023000D8A4000E1016D8B420EF01F0010E276EDE
:10024000230E256225EF01F0266A00EE11F02650FC
:1002500025C0EBFF262A9D889E9A4BC0EAFF4CC022
:10026000E9FF4DC005F04EC010F01100640E02DF32
:1002700095948C8495968C8695988C8893948A8492
:1002800093928A92000EF76EBA0EF66EE3DE0D0EB2
:10029000E9DE0A0EE7DE640EEDDE0400010E275CE7
:1002A000D8B454EF01F0F9D700EE2AF010EE11F0B7
:1002B000140EE6CFEEFFE82EFCD72604046E4A6A41
:1002C0004A50045CD8A06DEF01F000EE11F04A50E6
:1002D000EB50C8DE4A2AD8A0F3D7276A1150056E22
:1002E000230E0562DAD7116AF4EC01F045A0D5D7E8
:1002F0001250286E2852D8B497EF01F0420E285CB5
:10030000D8B4A0EF01F03F0E2814066A056E06501F
:100310000510D8A496EF01F0C00E2814066A056EE9
:100320000550400A0610D8B4A9EF01F0B6D7000E68
:10033000F76EC20EF66E8EDE0D0E94DEB2EF01F099
:10034000000EF76ED60EF66E85DE0D0E8BDEB2EF6A
:1003500001F0000EF76EEA0EF66E7CDE0D0E82DE08
:10036000B2EF01F0000EF76EFE0EF66E73DE135064
:10037000296E420E2962C2EF01F0010EF76E060EE1
:10038000F66E68DE480E2962CBEF01F0010EF76EC3
:100390000E0EF66E5FDE460E2962D4EF01F0010EFE
:1003A000F76E200EF66E56DE530E2962DDEF01F079
:1003B000010EF76E360EF66E4DDE540E2962E6EF34
:1003C00001F0010EF76E480EF66E44DE26C03EF0D8
:1003D000266A00EC02F0040E016E036A47C00CF0BE
:1003E00046C00BF013DE59D74590010EF76E540E40
:1003F000F66E30DE0D0E36DE0A0E34DE458012005B
:1004000047684668020E3E5C046E496A4950045CC7
:10041000D8A031EF02F000EE2AF04950EB50056E03
:100420000550461A010E486E090E48602EEF02F084
:1004300046A028EF02F0D89047300F6E46300E6E7F
:10044000010E0E18466EA00E0F18476E2BEF02F02D
:10045000D89047324632482AD8A0E6D7492AD8A0B1
:0C046000D5D712000400FED70400FED720
:020000040030CA
:0300010002120FD9
:020005008181F7
:060008000FC00FE00F40E5
:00000001FF
