:020000040000FA
:020000001828BE
:08000800A000030EA100831209
:1000100003130508031383168B130B1C11280B10F5
:100020004820031383168B178300A00E200E0900AF
:100030002420870103138316910187010B138B1270
:100040000B128B158B1723288312031319080739FA
:1000500003193228073A0319342819080538FD39DD
:100060009900342807309904831203130630A20044
:10007000031383160514851411109110960196141C
:10008000161083120313831203130030A00008001C
:10009000831203132008820783120313051C080030
:1000A000831203131030A000A1010730A500031331
:1000B000831616149610080083120313051C0800FB
:1000C00083120313031085180314A10DA50B6928CF
:1000D00008002208210603197128712803138316CA
:1000E0003E28831203132A30A00008008312031352
:1000F000051C080083120313A301851823140800AC
:10010000831203133D30A00085100313831685105E
:100110000800831203134230A00008008312031367
:1001200005180800831203134E30A0000313831632
:100130008514080083120313A40185182414831264
:1001400003135B30A0000313831696140800051CEC
:10015000B328851CB028831203131030A0000800B8
:100160000313831640282408A1000730A50083123A
:1001700003137330A0000313831696100800831234
:100180000313051C080083120313031085180314BE
:0E019000A10DA50BCC280800210887008028AF
:00000001FF
