:10000000000001308A0005298030A100FE30A920BF
:100010000130A9207530A7003030D628A101A117E2
:10002000AF00FE30A9202F08A928A0112508031928
:10003000A0150430A4002B0E22202B0822202A0E0B
:1000400022202A080F39F63E0318073E0A3E4828A8
:10005000A501AA00AB01A01125080319A0150530C0
:10006000A4002730A900103041200330A900E83057
:100070004120A90164304120A9010A3041202A0809
:100080004828A8002B08A7002A08A600E520260873
:10009000A600A4030319A01125080319522824025D
:1000A000031859282608031DA011A0195928303E0D
:1000B000A9280800AD0088110811831688110811BD
:1000C0000F30880583122D08A01884283E30A70021
:1000D0008030D6203330AC0098201330A700883011
:1000E000D62098206430D52098206430D520223046
:1000F000AC009820283083200C30832006308320E9
:10010000A0142D0884282014AC00201C922808116B
:10011000033C031C972897200730A700D030D62037
:10012000031408002014FE3C0319A7280815201CFE
:10013000201088150F3088052C08F039880400003D
:100140008811AC0E0000201898283230D5202D08D8
:100150000129A11B5A280800A400A20124080317A2
:100160008D000313250803178F00BF2003190129F1
:10017000A920A40A0319A50AA20FAE2801298316F3
:1001800003178C170C140000000083120C080129BF
:10019000A901A800FF30A807031CA907031C012917
:1001A0000330A700E630D620CA28A701FC3EA600EF
:1001B000A709031CE128FF300000A6070318DC286C
:1001C000A6070000A70FDB280800AB01AA0110302A
:1001D000AC00270DAA0DAB0D2808AA022908031CA4
:1001E000290FAB020318FB282808AA0729080318BF
:1001F000290FAB070310A60DA70DAC0BE9282608A5
:10020000080083138312031308008301A001073041
:1002100083169F008312B201B101B301B401B8018A
:10022000B701073083169F003830930091013630B4
:10023000831294008030A1008A010E200130A500B5
:10024000D7308A01AC208030A100C0308A010E2056
:100250000130A500E8308A01AC200330A900E83065
:100260008A01C9208030A100C0308A010E200130EF
:10027000A500F9308A01AC200330A900E8308A01DA
:10028000C9208A0104208A110A128C1D4A298A1168
:100290000A126221141394138030A1008A010E20E7
:1002A00033088A01282020308A015A20A501380805
:1002B000AB003708AA008A01152020308A015A2095
:1002C0008A0143298C118A110A128316831014198A
:1002D000831483128318B9298A110A128316140C05
:1002E00083120318742908008A110A1283168310D6
:1002F000941A8314831283188529023013028A11F9
:100300000A1203198429080008001308B5000130F7
:1003100033028A110A12031D9829B4088A110A129D
:10032000031D9729B8011308B700B401B3010800F1
:10033000013035020130031D0030B0000130B30838
:10034000031D0030B0058A110A120319A9290130D2
:10035000B3008030A100C0308A010E20A501320810
:10036000AB003108AA008A012B20B10A0319B20A96
:1003700008003508930014168030A1008A010E2071
:100380000230A5000A308A01AC208030A100C030C4
:100390008A010E200230A5000A308A01AC20033009
:1003A000A900E8308A01C92008008A01D5292E0059
:1003B0002E002E002E002E00530049005300540042
:1003C00045004D002E002E002E002E002E000000B5
:1003D0002E002E002E002E004100430049004C004C
:1003E000490059004F0052002E002E002E002E0012
:1003F00000002E002E002E002E002E004100430093
:1004000049004C00440049002E002E002E002E0012
:100410002E00000020005600450052004900200038
:1004200047004900540054004900200020002000EB
:0604300020002000000086
:02400E007A3DF9
:00000001FF
