:10000000000000308A00D428FF0003088301FE00AE
:100010000A08FD0001308A0023298030A100FE304B
:100020009420013094207530A8003030C128A101FF
:10003000A117B000FE30942030089428A601AB0030
:10004000AC01A01126080319A0150430A5002C0E40
:100050002E202C082E202B0E2E202B080F39F63E9A
:100060000318073E0A3EA700A5030319A01126089E
:1000700003193D282502031844282708031DA01151
:10008000A0194428303E94280800AE0088110811B9
:100090008316881108110F30880583122E08A018C6
:1000A0006F283E30A8008030C1203330AD0083205F
:1000B0001330A8008830C12083206430C020832002
:1000C0006430C0202230AD00832028306E200C30F8
:1000D0006E2006306E20A0142E086F282014AD006C
:1000E000201C7D280811033C031C82288220073035
:1000F000A800D030C120031408002014FE3C0319CE
:1001000092280815201C201088150F3088052D080E
:10011000F039880400008811AD0E000020188328F3
:100120003230C0202E08D028A11B45280800A50089
:10013000A201250803178D000313260803178F005B
:10014000AA200319D0289420A50A0319A60AA20FF1
:100150009928D028831603178C170C140000000070
:1001600083120C08D028AA01A900FF30A907031C9C
:10017000AA07031CD0280330A800E630C120B52808
:10018000A801FC3EA700A809031CCC28FF300000F2
:10019000A7070318C728A7070000A80FC62808004C
:1001A00083138312031308008301A0010730831611
:1001B0009F0001138111C0308B0008308C00831226
:1001C0008C01C0309F00823083169F0083120C1375
:1001D00083160C130B178B178312073083169F009F
:1001E0003830930091013630831294008030A100A2
:1001F0008A0117200130A600DC308A019720803068
:10020000A100C0308A0117200130A600EC308A011D
:1002100097200330AA00E8308A01B4208030A10082
:10022000C0308A0117200130A600FD308A019720D6
:100230000330AA00E8308A01B4208A010D2036106C
:100240008A110A1280298B138A110A128C1D2B29FC
:100250008A110A1233218B177D088A007E088300D9
:10026000FF0E7F0E09008C11141394138A110A12C9
:1002700083168310141983148312831872298A1128
:100280000A128316140C83120318472908008A11D6
:100290000A1283168310941A831483128318622916
:1002A0008A110A1283168310941A831483128318F6
:1002B0005A29B501023013028A110A120319612961
:1002C000080008001308B3003508373E84003308DF
:1002D0008000B50A023035028A110A12031D712905
:1002E000361408004408373E840000089300430891
:1002F00044028A110A1203187E29C40A141608003F
:100300008A110A12361CD6298030A1008A011720D2
:1003100037088A011E202E308A01452038088A01BC
:100320001E202E308A01452039088A011E202E30D9
:100330008A0145203A088A011E202E308A01452074
:100340003B088A011E202E308A0145203C088A0184
:100350001E2020308A0145208030A100C0308A0153
:1003600017203D088A011E202E308A0145203E08B4
:100370008A011E202E308A0145203F088A011E2056
:100380002E308A01452040088A011E202E308A0125
:10039000452041088A011E202E308A01452042084E
:1003A0008A011E2020308A01452036108A018029CA
:1003B0008A01D8298A01DA292E002E002E002E006B
:1003C0002E0053004C004100560045002E002E0028
:1003D0002E002E002E0000002E002E002E002E00DB
:1003E0004100430049004C00490059004F005200B1
:1003F0002E002E002E002E0000002E002E002E00BB
:100400002E002E004100430049004C0044004900EA
:0C0410002E002E002E002E002E000000FA
:02400E007A3DF9
:00000001FF
