:020000040000FA
:0400000026EF01F0F6
:0800080068EF01F0136E420ED7
:100010000A6E0F0E0B6EFFEC00F0D8B4BA90D8A4A5
:10002000BA80FC0FD8A0BA92D8B0BA82400E0A6E3D
:10003000420E0B6E0F0E0E6E0F6ABAB027D8BAB210
:1000400025D801EC01F00A04BB6E0AC00CF00BC00D
:100050000DF00150106E116E013C116A16EC01F0AA
:100060000F50132E0AD0BE6E0C0EBD6E0EBEBD8A92
:100070000EBCBD889494BA841200676E0C0E666E36
:100080000EBE668A0EBC6688949EF5D700D8D890BE
:100090000E320B320A321200008800A8009800BA13
:1000A00003D0008A3CD825E2080E0D6E4CD80C36E1
:1000B0000D2EFCD700A82BD852D84CD800B819D890
:1000C0001FD80C50D8901200008800A8009800BCDF
:1000D00005D0FE0B056E008CD890120000BE05D036
:1000E000106E008E1CD805E2105020D802E200A845
:1000F00012000DD834D8009C009E009A01D812003E
:10010000E268013CE16EE1880450E41207D0E26845
:1001100001C0E1FF041CE616E188E4161200F0DFDE
:100120001ED8F5DF17D8055000BA01090C6E080E6D
:100130000D6E0C36D8B0E4DFD8A0E9DF10D80AD8AD
:100140000D2EF7D7DDDF0BD8E26801C0E1FF0450C8
:10015000E714FF0FE26802C0E1FF031CDCD7E2688E
:10016000023CE16EE1880350D0D7A96EA66AA68052
:10017000A850A92A1200A86EA66AA684550EA76EDA
:10018000AA0EA76EA682A6B2FED7A694A92A12002E
:10019000E836E836FC0B0109C212C009C216C0508D
:1001A000F80B0309C06E320EEBEC00F0C282C2B253
:1001B000FED7C4CF16F0C350156E12000D6A0C6E38
:1001C000FF0E0C260D2200D0D8A01200030E0B6EDD
:1001D000DE0E02D8F5D70B6AE90F0A6EFC0E05E3B6
:1001E000000000000A26FDE200000A260B06F9E2E4
:1001F0000AB000D00AA202D000D0000012000F6A9C
:100200000E6A100EF36E0B340E360F360C500E5C69
:100210000D500F5805E30C500E5E0D500F5AD8804C
:100220000A360B36F32EEFD70A5012000C5010028C
:10023000F3CF0EF0F4CF0FF00D501002F3500F2655
:100240000C501102F3500F260E501200006A0001EC
:10025000186A020E196E796A786A796A786A0F0EDE
:10026000C16E0F01386B396B3A6B92809282928427
:1002700092869298929A938093829384939693987D
:10028000939A939C939E9490949294949486948839
:10029000948A948C949E316E050E346EC580010E46
:1002A0000D6EF40E8CDF9D90F28CCD92CD989D80DA
:1002B000CD80F28E446A4580466A34C001F0070E54
:1002C0000D6ED00E0C6E010EA1DE0001A5EF01F047
:1002D000000117C0B1F0F29E000E9EB0010E176E25
:1002E000000E9DB0010E1716D8B4A1EF01F09D903D
:1002F000180ECE26FC0ECF229D809E90394A3A2AB7
:10030000E80E395C030E3A58D8A0A1EF01F03A6A22
:10031000396A3B4A3C2A3C52D8A404D03A0E3B648A
:10032000A1EF01F03C6A3B6A3D2A3A0E3D64A1EF21
:1003300001F03D6A3E2A170E3E64A1EF01F03E6ACD
:100340003F2AF28EB1C017F011003C6A3B6A3D6A49
:100350003E6A3F6A939C8A9C939E8A9E0A0E2EDF79
:10036000939A8A9A939C8A8C939E8A8E182CBFEFBC
:1003700001F09298899894908B80010E196E4AEC46
:1003800002F0000EF2DE476EF1DE486E4850471074
:10039000D8A4CDEF01F045EC02F0A96A010E472484
:1003A000156E000E4820166E1550E5DE1650E3DE81
:1003B000AF2B0A0E03DF820E016E100E046E820E4A
:1003C000026E080E036E560E81DE010E7DDE050EF6
:1003D000F5DE820E016E100E046E820E026E080EA5
:1003E000036E560E73DE58DEAB6F050EE7DEB06BA4
:1003F000200EB06128EF02F0820E016E100E046E26
:10040000820E026E080E036E560E60DE000E5EDE79
:10041000B0515ADE020ED2DE820E016E100E046E54
:10042000820E026E080E036E560E50DE37DE076E29
:1004300033DE066E00EE49F0D890B03506C0EBFF13
:10044000E82A07C0EBFF010EB9DEB02BD8A0D0D749
:10045000010E9EDE326E16C033F0D8903332323247
:10046000D89033323232020E93DE356E16C036F03B
:10047000D89036323532D890363235320A0E9EDE7A
:10048000030E0D6EE80E9BDE93D7030E0D6EE80E85
:1004900096DE12002F6A2E6A4C0E2D6E100E2C6EF8
:1004A0006EEC02F02F6A360E2E6E070E2D6EAD0E1C
:1004B0002C6E6EEC02F02F6A400E2E6E280E2D6E02
:1004C000100E2C6E6EEC02F02F6A6F0E2E6ED40E94
:1004D0002D6ED80E2C6E6EEC02F01200010E306EF6
:1004E000180E3060A0EF02F093988A98010E2C1439
:1004F000096A086A076A066E0604071008100910E0
:10050000D8A485EF02F093988A88D8902F322E32A3
:100510002D322C32030EE82EFED7000000009396F9
:100520008A86030EE82EFED70000000093968A9676
:10053000030EE82EFED700000000302AD8A0D0D746
:10054000939A8A8A030EE82EFED700000000939A41
:100550008A9A030EE82EFED7000000001200FFD793
:020000040030CA
:03000100211E1CA1
:020005003F803A
:0600080003C003E0034009
:00000001FF
